:100000000C94E9010C940D200C943A200C941102EC
:100010000C9411020C9411020C9486020C9411029F
:100020000C9411020C9411020C9411020C94110204
:100030000C9411020C9411020C9411020C941102F4
:100040000C9467200C9411020C9449230C947B238C
:100050000C9411020C9411020C9411020C941102D4
:100060000C9411020C94110209444843502066611B
:10007000696C733A2000094661696C656420736598
:100080006E64733A20000A0953756363657373667F
:10009000756C2073656E64733A2000446973636FF6
:1000A0006E6E656374656400436F6E6E656374693C
:1000B0006F6E206661696C6564004A534F4E207311
:1000C000656E74200A726573706F6E73653A2000F6
:1000D000436F6E74656E742D547970653A2061704B
:1000E000706C69636174696F6E2F6A736F6E004321
:1000F0006F6E74656E742D4C656E6774683A20007F
:10010000486F73743A203130372E3136312E313604
:10011000342E313636004163636570743A20617065
:10012000706C69636174696F6E2F6A736F6E0050D3
:100130004F5354202F736372697074732F696E6408
:100140006578746573742E7068703F6170695F6B59
:1001500065793D417A514C4B507751716B794354DD
:1001600044475A4853647920485454502F312E3113
:100170000053656E64696E67206461746100697024
:1001800020616464726573733A00444843502041AF
:100190006371756972656400436F756C646E277472
:1001A0002067657420444843502C20726573657441
:1001B0002E2E2E004661696C656420746F20636F7B
:1001C0006E6E65637420746F20746865205769468D
:1001D00069206E6574776F726B00436F6E6E656336
:1001E0007420746F20007B226C6F6E676974756475
:1001F00065223A222573222C226C6174697475641D
:1002000065223A222573222C2276616C7565223A8A
:10021000222573222C22756E6974223A2263706D36
:10022000222C226465766963655F6964223A22251F
:1002300073227D004661696C6564210043686563D3
:100240006B20636F6E6E656374696F6E7320706C84
:1002500065617365000A0A48656C6C6F20506F69B0
:100260006E7463617374206D6963726F000D0A00B0
:100270000D0A00000000080002010000030407004E
:10028000000000000000000102040810204080016E
:1002900002040810200102040810200404040404CD
:1002A0000404040202020202020303030303030024
:1002B000000000230026002900000000002500287F
:1002C000002B0000000000240027002A0000407AD4
:1002D00010F35A00A0724E18090010A5D4E80000CF
:1002E000E87648170000E40B54020000CA9A3B006D
:1002F0000000E1F505000080969800000040420FE4
:10030000000000A08601000000102700000000E8A7
:1003100003000000006400000000000A000000006C
:10032000000100000000002C76D888DC674F08230D
:10033000DFC1DFAE59E1B1B796E5E3E453C63AE673
:1003400051997696E8E6C28426EB898C9B62ED4053
:100350007C6FFCEFBC9C9F40F2BAA56FA5F49005A2
:100360005A2AF75C936B6CF9676DC11BFCE0E40DD6
:1003700047FEF520E6B500D0ED902E0300943577CA
:10038000050080841E080000204E0A000000C80CF2
:10039000333333330F986E12831141EF8D2114895B
:1003A0003BE65516CFFEE6DB18D1844B381BF77CB5
:1003B0001D901DA4BBE424203284725E228100C9FA
:1003C000F124ECA1E53D2700DC02030D0E0DAB236B
:1003D0003E2411241FBECFEFD8E0DEBFCDBF11E019
:1003E000A0E0B1E0E2E0FDE502C005900D92A03E84
:1003F000B107D9F725E0A0EEB1E001C01D92A73109
:10040000B207E1F713E0C2EDD3E004C02297FE018A
:100410000E942A29C83CD107C9F70E944E240C9497
:100420007F2E0C9400008091C7029091C802A09189
:10043000C902B091CA020196A11DB11D8093C702E5
:100440009093C802A093C902B093CA020895109273
:10045000C6021092C502F89414BEE0E6F0E0808176
:100460008861808381E680837894089526E040E067
:1004700052EC61E070E082E794E00E94E72265E5DB
:1004800072E082E794E00E94CD2420E030E040E07A
:1004900060E08BEC92E00E94B007811107C06CE332
:1004A00072E082E794E00E94CD24FFCF1092C10257
:1004B0001092C2021092C3021092C4020E9427023C
:1004C0008BEC92E00E94C608811107C064E372E0E1
:1004D00082E794E00E94CD24FFCF62E083E00E9497
:1004E0006C2142E050E063E172E080E00E94DD1F99
:1004F00080EE93E9AFEFBFEF8093BD029093BE0211
:10050000A093BF02B093C002A89508951F920F92C6
:100510000FB60F9211242F933F938F939F93809147
:10052000C5029091C60201969093C6028093C502BF
:100530002091C5023091C602809106019091070179
:100540002817390714F4A89509C014BE80916000DB
:1005500088618093600088E0809360009F918F9114
:100560003F912F910F900FBE0F901F901895CF9233
:10057000DF92EF92FF920F931F936B017C010E9419
:10058000B12097018601061B170B280B390BC616E5
:10059000D706E806F90618F0C901B80106C0C90176
:1005A000B80160957095809590951F910F91FF907F
:1005B000EF90DF90CF900895EF92FF920F9300E0BD
:1005C00020E040E060E08CEC92E00E94282482E78A
:1005D000E82E84E0F82E04E025E043E06AE08BECAE
:1005E00092E00E9496070F91FF90EF9008950F936D
:1005F0001F93CF93DF93CDB7DEB7C355D1090FB6A5
:10060000F894DEBF0FBECDBF0AEA12E020E040E062
:100610000E942E2902EE11E086E9D8011D928A95EA
:10062000E9F788E091E09F938F938AEA92E09F93A5
:100630008F938FE091E09F938F938FE191E09F9351
:100640008F9386EE91E09F938F931F930F930E9459
:100650005829F80101900020E9F7319710826AEDDE
:1006600071E082E794E00E949B2463E771E082E7F7
:1006700094E00E94DF2400E023E04DE751E063E7CF
:1006800071E08BEC92E00E94BA090FB6F894DEBFDD
:100690000FBECDBF811103C064EB71E0EBC01092BF
:1006A000E1011092E0018BEC92E00E94340A81118A
:1006B0001EC064E670E080E090E00E94E02080913F
:1006C000E0019091E10101969093E1018093E001B6
:1006D0008436910541F768E971E082E794E00E9471
:1006E000CD248091C4028F5F8093C402C7C06AE8A2
:1006F00071E082E794E00E94CD246EE771E082E72A
:1007000094E00E94CD2443EA54EA61EA7BE68BEC54
:1007100092E00E94630882E794E00E94C92400E509
:1007200010E023EA34EA41EA5BE66BEC72E0CE01CA
:1007300001960E948E0ACE0101960E94FA06882335
:1007400009F450C00E94B1206093B9027093BA02BC
:100750008093BB029093BC0261E771E082E794E072
:100760000E94CD246FE271E0CE0101960E94B30B8E
:1007700066E171E0CE0101960E94B30B60E071E08A
:10078000CE0101960E94B30B6FEE70E0CE01019690
:100790000E943D0BE2EEF1E0DF010D900020E9F751
:1007A000BD0161507109625E71404AE050E0CE01C6
:1007B00001960E94BF2560ED70E0CE0101960E9477
:1007C000B30BCE0101960E94C92462EE71E0CE0106
:1007D00001960E94DE0B6AEB70E082E794E00E94D3
:1007E0009B2432C068EA70E082E794E00E94CD2446
:1007F0008091C2028F5F8093C202833028F181E032
:100800008093C1021092C2021FC0CE0101960E94C5
:100810003E0C182F682F82E794E00E94C2241B34FC
:1008200069F48091C3028F5F8093C30282E794E0F2
:100830000E94C924CE0101960E94230CCE0101968C
:100840000E946F06892B09F7CE0101960E94FA06D5
:100850008111F4CFCE0101960E94FA06882321F07F
:10086000CE0101960E94230C8BEC92E00E94B80806
:100870006BE970E082E794E00E94CD24CD5ADF4F0F
:100880000FB6F894DEBF0FBECDBFDF91CF911F91A1
:100890000F910895CF92DF92EF92FF928091C10263
:1008A000813009F477C0A8951092C6021092C50253
:1008B0006091B9027091BA028091BB029091BC0222
:1008C0000E94B702C090BD02D090BE02E090BF026D
:1008D000F090C0026C157D058E059F0508F45AC086
:1008E00066E870E082E794E00E949B244AE050E0D2
:1008F0006091C30282E794E00E94A82566E770E059
:1009000082E794E00E949B244AE050E06091C2029A
:1009100082E794E00E94A82568E670E082E794E010
:100920000E949B244AE050E06091C40282E794E078
:100930000E94A8256091C7027091C8028091C902E7
:100940009091CA020E94D52720E030E040EA50E4AE
:100950000E943C276B017C011092C7021092C802D2
:100960001092C9021092CA0266E871E082E794E030
:100970000E94C02422E030E0B701A60182E794E0A3
:100980000E94C026C701B601FF90EF90DF90CF9084
:100990000C94F702FF90EF90DF90CF90089561E004
:1009A0008AE00E94A52161E08AE00E946C218CB55A
:1009B00080618CBD8CB580648CBD61E08DE00E944F
:1009C0006C2161E08BE00C946C219091D402923008
:1009D000B0F49FB7F894882331F0813031F082E091
:1009E0008093D4020BC021E001C022E081E080931B
:1009F000D4028091D302822B8093D3029FBF0895AB
:100A0000DC01ED91FC910488F589E02D099591E0D8
:100A1000811101C090E0892F08950895FA0160388E
:100A200030E873078105910521F43091D7023160D8
:100A300009C0613030E873078105910531F43091C8
:100A4000D70232603093D70221C0623030E873079A
:100A50008105910531F42091D702297F2093D70297
:100A600027C0603130E873078105910521F480913A
:100A7000D702846008C0693971058105910531F498
:100A80008091D70288608093D7020895603430E85F
:100A900073078105910561F480910C038F5F80934A
:100AA0000C03422F50E0BF0188EF92E00C944F29D5
:100AB000611578488105910541F4E081E03228F420
:100AC000F0E0E852FD4F81E0808308954F925F92FD
:100AD0006F927F928F929F92AF92BF92CF92DF924E
:100AE000EF92FF920F931F93CF93DF93CDB7DEB7B3
:100AF00060970FB6F894DEBF0FBECDBF5C016B01EF
:100B0000942E852EFC01E35BFF4F118210823197FA
:100B1000108216E0E12EF12C00E010E021E030E040
:100B200040E050E062E070E080E090E00E945F17FB
:100B30002B013C016F3F2FEF720782079207B9F13B
:100B4000FB01E852FD4F1082AE014F5F5F4F80E125
:100B5000FA0111928A95E9F782E090E09A838983FD
:100B60008B829C82F60182819381248135813D8331
:100B70002E839F83888700E110E020E030E0C301EE
:100B8000B2010E9472186F3F7F4F8F4F9F4F29F421
:100B9000C301B2010E94BB170AC0F501E15BFF4F20
:100BA000408251826282738281E090E002C080E0E4
:100BB00090E060960FB6F894DEBF0FBECDBFDF9118
:100BC000CF911F910F91FF90EF90DF90CF90BF904A
:100BD000AF909F908F907F906F905F904F9008950F
:100BE000CF92DF92EF92FF920F931F93CF93DF93F9
:100BF000CDB7DEB72A970FB6F894DEBF0FBECDBFD4
:100C00008C01CB017A011F82188619861A86DB01B6
:100C10000D900020E9F7BD0161507109681B790B47
:100C2000AE01495F5F4F0E9406184F815885698564
:100C30007A85411551056105710599F0892B89F077
:100C4000D801ED91FC91C484D584CE0101960E9417
:100C50003424A701BE016F5F7F4FC801F6010995DB
:100C600002C080E090E02A960FB6F894DEBF0FBE77
:100C7000CDBFDF91CF911F910F91FF90EF90DF904B
:100C8000CF900895CF92DF92EF92FF920F931F9330
:100C9000CF93DF931F92CDB7DEB76983815B9F4F00
:100CA000FC016081718182819381C12CD12C7601FC
:100CB00001E010E020E030E0AE014F5F5F4F0E94A6
:100CC000301C97FF02C080E090E00F90DF91CF9141
:100CD0001F910F91FF90EF90DF90CF900895EF92CA
:100CE000FF920F931F93CF93DF93CDB7DEB72C976F
:100CF0000FB6F894DEBF0FBECDBFFC01E15BFF4F26
:100D0000408151816281738177FD65C03297208176
:100D10003181121613065CF43197808190E08217BE
:100D200093072CF4A901481B590BCA0156C0198618
:100D30001A861B861C86DB01CA0125E0B595A7959E
:100D4000979587952A95D1F7FC01EE0FFF1FEE0FBF
:100D5000FF1F81E090E08C0F9D1FE80FF91F8A01B3
:100D60009B010F7111272227332781E090E0A0E03B
:100D7000B0E004C0880F991FAA1FBB1F0A95D2F7C5
:100D800080879187A287B38719821A821B821C826F
:100D900088E893E1A0E0B0E08D839E83AF83B887BD
:100DA000CB01BA016F5F7F4F8F4F9F4F9E012F5F27
:100DB0003F4F790100E010E020E030E0AE01475FF6
:100DC0005F4F0E94C61831E020E0019709F030E043
:100DD000832F922F02C080E090E02C960FB6F894FB
:100DE000DEBF0FBECDBFDF91CF911F910F91FF905E
:100DF000EF900895CF93DF93EC01C15BDF4F488103
:100E000059816A817B8177FD23C0DC01ED91FC91E2
:100E10000480F581E02D0995892B51F46881798151
:100E20008A819B81FB01E852FD4F2081211102C084
:100E300081E00FC00E94BB17E881F981E852FD4FA5
:100E400010828FEF9FEFDC0188839983AA83BB8395
:100E500080E0DF91CF910895AF92BF92CF92DF9261
:100E6000EF92FF920F931F93CF93DF93CDB7DEB72F
:100E7000C054D1090FB6F894DEBF0FBECDBF8C01B0
:100E8000CB01BA0140E4E3E3F1E09E012F5F3F4F65
:100E9000D90101900D924A95E1F7F8014081442370
:100EA00091F13F932F931F921F9221E02F932CE2F9
:100EB0002F931F921F921F921F922FEF2F932F930A
:100EC0002F9338E83F931F921F923FE13F932F9358
:100ED00045E0A42EB12CC12CD12C14E6E12EF12C2E
:100EE00000E010E024E130E040E050E00E94FD1E10
:100EF00041E00FB6F894DEBF0FBECDBF672B682B65
:100F0000692B09F040E0842FC05CDF4F0FB6F894E6
:100F1000DEBF0FBECDBFDF91CF911F910F91FF902C
:100F2000EF90DF90CF90BF90AF900895EF92FF9237
:100F30000F93FC01108260931103409310032093E0
:100F40000F038FEF80930E0300930D031092D702CF
:100F5000F092D602E092D5020F91FF90EF900895A3
:100F60005F926F927F928F929F92AF92BF92CF9239
:100F7000DF92EF92FF920F931F93CF93DF934C0179
:100F8000562E642EE901FC017080711089C0909189
:100F90001003923021F0933021F491E003C090E0EF
:100FA00001C09FEF90930E030E94740D7AE8A72E64
:100FB0007FE0B72EEEE6CE2EE0E1DE2EFDE9EF2E4D
:100FC000FFE0FF2E03E91FE02CE730E144E750E1AA
:100FD00064E870E18EE095E00E94B41C852D90E0FD
:100FE0000E94E81C611012C0E12CF12C870120E066
:100FF00030E0A90160E070E0CB010E947B1E6FEF42
:1010000070E080E090E00E94CA1E0CC0E12CF12C40
:101010008701E39420E030E0A90160E070E0CB01BB
:101020000E947B1E64E072E880E090E00E948A1FCC
:10103000672B682B692BB1F581E0F4018083662072
:1010400079F1812C912C8091D70281FD11C00E94F1
:101050008C10FFEF8F1A9F0A8AEE881683E098069D
:1010600009F16AE070E080E090E00E94E020EBCFC0
:1010700068EE73E080E090E00E94E0208091D7026B
:1010800082FF0EC0FE0101900020E9F7AF01415040
:1010900051094C1B5D0BBE0181E090E00E94571C82
:1010A00077247394872DDF91CF911F910F91FF903B
:1010B000EF90DF90CF90BF90AF909F908F907F90F8
:1010C0006F905F900895CF92DF92EF92FF926A0146
:1010D0007B012091D5023091D6022115310509F40A
:1010E00042C0672F7727882799274AE050E0C90137
:1010F0000E94A1256EE28091D5029091D6020E94B5
:10110000C224B701882799274AE050E08091D50290
:101110009091D6020E94A1256EE28091D502909115
:10112000D6020E94C22499278F2D7E2D6D2D4AE074
:1011300050E08091D5029091D6020E94A1256EE2E6
:101140008091D5029091D6020E94C2244AE050E0DC
:101150006C2D8091D5029091D602FF90EF90DF9098
:10116000CF900C94A125FF90EF90DF90CF90089541
:10117000FC012081222341F00E944F1E21E0672BB9
:10118000682B692B09F020E0822F0895EF92FF92DF
:101190000F931F93FC0180818823D1F0E12CF12C67
:1011A000870120E030E0A90160E070E0CB010E94FF
:1011B0007B1E672B682B692B59F46FEF70E080E082
:1011C00090E00E94CA1E21E0672B682B692B09F072
:1011D00020E0822F1F910F91FF90EF9008958F9242
:1011E0009F92AF92BF92CF92DF92EF92FF920F93B6
:1011F0001F93CF93DF93EB01FC018081882379F16A
:10120000E12CF12C870120E030E0A90160E070E0E2
:10121000CB010E947B1E672B682B692B01F564EFC5
:1012200071E080E090E00E94E020FE01019000204B
:10123000E9F73197EC1BFD0B8F0120E030E0812CAA
:10124000912C5401C12CD12CAE0160E070E0CB0197
:101250000E94851D21E0672B682B692B09F020E097
:10126000822FDF91CF911F910F91FF90EF90DF9030
:10127000CF90BF90AF909F908F9008952F923F9204
:101280004F925F926F927F928F929F92AF92BF9296
:10129000CF92DF92EF92FF920F931F93CF93DF9342
:1012A0001B01EA0128013901FC018081882309F42E
:1012B0004CC0043011052105310508F046C0FB0182
:1012C00001900020E9F73197E61BF70BB197E8F59D
:1012D000FA0101900020E9F73197E41BF50BB19773
:1012E000A0F5E12CF12C870120E030E0A90160E0BD
:1012F00070E0CB010E947B1E672B682B692B29F5C0
:1013000064EF71E080E090E00E94E020DE010D904B
:101310000020E9F71197AC1BBD0BF10101900020F3
:10132000E9F73197E219F3094D01A12CB12C8F0196
:1013300020E030E06E01A101C301B2010E94851DD1
:1013400021E0672B682B692B09F020E0822FDF91C9
:10135000CF911F910F91FF90EF90DF90CF90BF90B2
:10136000AF909F908F907F906F905F904F903F9045
:101370002F9008952F923F924F925F928F929F925B
:10138000AF92BF92CF92DF92EF92FF920F931F9393
:10139000CF93DF93EC017B016A01322E202E58801F
:1013A000552009F44FC0402E822E912CA12CB12C37
:1013B000222049F0411006C05090D70251FA55241E
:1013C00050F840C04A940E948C1040EA5FE060E010
:1013D00070E0CE010E942C0764E971E180E090E0AA
:1013E0000E94E02040E050E0BA01CE010E942C07AC
:1013F000332021F0F6018081811109C0B701CE01AF
:101400000E94EF088823D1F008EE13E013C0950185
:101410008401A601B701CE010E943E09F3CF0E94CC
:101420008C106AE070E080E090E00E94E0200150C3
:10143000110921F08091D70281FFF1CF8091D7026D
:1014400081FFB6CF852DDF91CF911F910F91FF9036
:10145000EF90DF90CF90BF90AF909F908F905F9074
:101460004F903F902F900895CF93DF9300D000D0FE
:10147000CDB7DEB78091D70282FF09C0AE014F5FC2
:101480005F4F69E070E082E991E00E940618809168
:10149000D70282FB882780F90F900F900F900F9052
:1014A000DF91CF910895FC011382128248EE53E040
:1014B00060E070E0448355836683778383EA91E03C
:1014C00091838083E15BFF4F4FEF5FEFBA01408371
:1014D00051836283738308950F931F93FC011382DA
:1014E000128208EE13E020E030E0048315832683A7
:1014F000378383EA91E091838083DF01A15BBF4F53
:101500004D935D936D937C93139712971D921C924C
:10151000E45BFF4F10821F910F9108954F925F92ED
:101520006F927F928F929F92AF92BF92CF92DF92F3
:10153000EF92FF920F931F93CF93DF93CDB7DEB758
:1015400060970FB6F894DEBF0FBECDBF5C01922E40
:10155000832E742E652E502E412E16E0E12EF12C96
:1015600000E010E021E030E040E050E062E070E0B8
:1015700080E090E00E945F176B017C016F3F2FEFCE
:1015800072078207920739F1FB01E852FD4F108282
:10159000AE014F5F5F4F80E1FA0111928A95E9F742
:1015A00082E090E09A8389834B825C826D827E82A6
:1015B0008F82988600E110E020E030E0C701B6019C
:1015C0000E9472186F3F7F4F8F4F9F4F41F4C701AA
:1015D000B6010E94BB17C5010E94530A05C0B7019E
:1015E000A601C5010E946C0AC50160960FB6F89469
:1015F000DEBF0FBECDBFDF91CF911F910F91FF9046
:10160000EF90DF90CF90BF90AF909F908F907F90A2
:101610006F905F904F9008958F929F92AF92BF927C
:10162000CF92DF92EF92FF920F931F93FB014A013B
:10163000A12CB12C815B9F4FDC016D917D918D912F
:101640009C916801790195018401AF010E94301CD1
:101650001F910F91FF90EF90DF90CF90BF90AF90D0
:101660009F908F9008950F931F9300E010E09801D2
:101670000E940C0B1F910F9108954F925F926F92F1
:101680007F928F929F92AF92BF92CF92DF92EF9212
:10169000FF920F931F93CF93DF93CDB7DEB7A09741
:1016A0000FB6F894DEBF0FBECDBF3C014B01A12C9D
:1016B000B12C00E02C018FE4480E511CF401849100
:1016C000882319F1E1E0F0E0EC0FFD1FE00FF11DC0
:1016D00080830F5F003220F4EFEF8E1A9E0AEECF68
:1016E000F2016081718182819381C12CD12C7601BC
:1016F00000E210E020E030E0AE014F5F5F4F0E945B
:10170000301CA80EB91E00E0E7CF0023A1F010E0C6
:1017100020E030E0F301E15BFF4F60817181828165
:101720009381C12CD12C7601AE014F5F5F4F0E9497
:10173000301CA80EB91EC501A0960FB6F894DEBFE6
:101740000FBECDBFDF91CF911F910F91FF90EF9012
:10175000DF90CF90BF90AF909F908F907F906F90D1
:101760005F904F9008950F931F93CF93DF93EC01F9
:101770000E943D0B8C0160E772E0CE010E943D0BA0
:10178000800F911FDF91CF911F910F9108950F93BB
:101790001F93FB0101900020E9F7AF01415051096F
:1017A000461B570B31F000E010E098010E940C0B33
:1017B00002C080E090E01F910F9108950F931F9356
:1017C000CF93DF93EC010E94C70B8C016DE672E0B2
:1017D000CE010E943D0B800F911FDF91CF911F9191
:1017E0000F9108958F929F92AF92BF92CF92DF9206
:1017F000EF92FF920F931F93FB014A01A12CB12C92
:10180000815B9F4FDC016D917D918D919C91680171
:10181000790195018401AF010E94061B1F910F9170
:10182000FF90EF90DF90CF90BF90AF909F908F9000
:1018300008950F931F9300E010E098010E94F20BAF
:101840001F910F9108950F931F93CF93DF93EC0196
:10185000C15BDF4F688179818A819B810E94BB17C0
:101860000FEF1FEF9801088319832A833B83DF91D1
:10187000CF911F910F9108950C94230C4F925F927A
:101880006F927F928F929F92AF92BF92CF92DF9290
:10189000EF92FF920F931F93CF93DF93EC014C01D4
:1018A0002DE4820E911C5C018CE4A80EB11C2E016B
:1018B000ECE04E0E511C3E01FFE46F0E711CF40172
:1018C0002081318112161306FCF00E948C10F30166
:1018D0006081718182819381C12CD12C760100E4D9
:1018E00010E020E030E0A2010E94061BF401918389
:1018F0008083C99631F4CE010E94230C80E090E0F1
:1019000010C0F5011082DBCFF5014081842F90E0FB
:1019100028173907D1F2C80FD91F8C854F5F408334
:1019200090E0DF91CF911F910F91FF90EF90DF90AA
:10193000CF90BF90AF909F908F907F906F905F906F
:101940004F9008954F925F926F927F928F929F92E5
:10195000AF92BF92CF92DF92EF92FF920F931F93BD
:10196000CF93DF93EC014C012DE4820E911C5C01BE
:101970008CE4A80EB11C2E01ECE04E0E511C3E0171
:10198000FFE46F0E711CF4012081318112161306E1
:10199000FCF00E948C10F30160817181828193813F
:1019A000C12CD12C760100E410E020E030E0A2014F
:1019B0000E94061BF40191838083C99631F4CE0105
:1019C0000E94230C80E090E00DC0F5011082DBCF77
:1019D000F501808190E028173907D9F2C80FD91F87
:1019E0008C8590E0DF91CF911F910F91FF90EF9048
:1019F000DF90CF90BF90AF909F908F907F906F902F
:101A00005F904F9008950F9300E020E040E060E089
:101A100082E193E00E9428240F9108950F9300E043
:101A200020E040E060E088E193E00E9428240F91EC
:101A300008952091D402222381F0213051F42DB356
:101A40002093D2023DB32091D302209523232DBBB6
:101A500004C02FB7F8942093D2028CBD9DBD089589
:101A60009091D402992339F08091D202913011F4EF
:101A70008DBB08958FBF0895CF93DF9310922C04F0
:101A800010922D0410922E0410922F04E3EAF3E03A
:101A900023E8DF01C22F1D92CA95E9F7A0E2B3E067
:101AA000ED0119922A95E9F7909327048093260473
:101AB00010922904109228041092310410923004DC
:101AC000F0933304E093320410922B0410922A0412
:101AD0008EED809325048093A203E0914A04F09157
:101AE0004B04DF91CF91099461E080910F030E9434
:101AF0006C2160E080910F030E94A52164EF71E0EA
:101B000080E090E00E94E02061E0809111030E945B
:101B10006C2162E0809110030E946C218CB580934F
:101B200034048DB58170809335040E94CF048CB548
:101B3000837F84608CBD8CB58F7D8CBD20910D031F
:101B40009CB5822F83709C7F892B8CBD8DB522FB29
:101B5000222720F98E7F822B8DBD8CB58093370490
:101B60008DB581708093360480910E030E94E50448
:101B700061E0809111030E94A521809134048CBD05
:101B800080913504882319F08DB5816002C08DB530
:101B90008E7F8DBD80E090E00895680F791F8617D5
:101BA000970751F0FC012191CF012EBD00000DB42B
:101BB00007FEFDCF2EB5F3CF08950F931F93CF935C
:101BC000DF93EC018B018CB5809334048DB581706B
:101BD00080933504809137048CBD8091360488232E
:101BE00019F08DB5816002C08DB58E7F8DBD84E505
:101BF00091E00E94190D60E0809111030E94A521DF
:101C000061E070E080E090E00E94E02064E070E03D
:101C1000CE010E94CD0D61E070E080E090E00E9476
:101C2000E020B80164507109CE0104960E94CD0DE8
:101C300082E090E0A0E0B0E080932C0490932D042B
:101C4000A0932E04B0932F0461E0809111030E94B1
:101C5000A5210E94300D809134048CBD8091350403
:101C6000882319F08DB5816002C08DB58E7F8DBD42
:101C700060E070E0CB01DF91CF911F910F9108954B
:101C80002CB5237F24602CBD680F791F23E08617B5
:101C9000970751F02EBD00000DB407FEFDCF3EB5F5
:101CA000FC013193CF01F3CF08956AE070E0809199
:101CB0003204909133040C94400E0F931F93CF93F2
:101CC000DF93C0913204D09133048D81823019F0BA
:101CD0008430E1F03EC063E070E0CE0105960E94E2
:101CE000A8109C01BC0180E090E020FD05C06F5F62
:101CF0007F4F8F4F9F4F05C061157105810591057D
:101D000041F1CE010A960E94400E23C0688570E022
:101D100080E090E08B019C010150110921093109FB
:101D200000FD02C0C901B801611571058105910569
:101D300021F0CE010A960E94400E88E090E0A0E0DB
:101D4000B0E080932C0490932D04A0932E04B093C4
:101D50002F0460E070E0CB01DF91CF911F910F91D4
:101D6000089510921E0380910E030C94FD1F81E0D4
:101D700080931E0342E050E06EEF7EE080910E0300
:101D80000C94DD1F0E94B10E61E0809111030E944E
:101D9000A5210E94300D809134048CBD80913504C2
:101DA000882319F08DB5816002C08DB58E7F8DBD01
:101DB0008091320490913304FC01EE57FF4F208153
:101DC0002E3D09F0FFCF42E050E060E070E040932C
:101DD0002C0450932D0460932E0470932F04E091F3
:101DE0002604F0912704059609940E945D0E672B46
:101DF000682B692B11F40C94C20E089581E0809336
:101E00001F0380912C0490912D04A0912E04B09179
:101E10002F040097A105B10569F481E090E0A0E0EE
:101E2000B0E080932C0490932D04A0932E04B093E3
:101E30002F046DC082309105A105B105D1F586E072
:101E400090E0A0E0B0E080932C0490932D04A09348
:101E50002E04B0932F048CB5809334048DB581701B
:101E600080933504809137048CBD8091360488239B
:101E700019F08DB5816002C08DB58E7F8DBD84E572
:101E800091E00E94190D60E0809111030E94A5214C
:101E90000E94550E88E090E0A0E0B0E080932C0412
:101EA00090932D04A0932E04B0932F040E94F50E5E
:101EB0002EC00397A105B10551F5609128047091DA
:101EC000290480913004909131040E94CD0D82E06C
:101ED00090E0A0E0B0E080932C0490932D04A093B8
:101EE0002E04B0932F0461E0809111030E94A5217C
:101EF0000E94300D809134048CBD8091350488237C
:101F000019F08DB5816002C08DB58E7F8DBD1092A8
:101F10001F030895882311F061E001C060E0809103
:101F20000F030C94A521809110030E94DB21BC01BA
:101F3000882777FD8095982F089581E080931E0370
:101F400042E050E06EEF7EE080910E030C94DD1FC6
:101F50000F931F93CF93DF93EC01CB0181709927EF
:101F600021E0822721E028838C01060F171F1983A7
:101F70008170860F8A831B821C828091A2038E3D12
:101F800009F0FFCF40912C0450912D0460912E0454
:101F900070912F04411551056105710509F4FFCFBA
:101FA0000B5F1F4F413051056105710529F4B801E0
:101FB000CE010E94DD0D7DC0E0914C04F0914D04F6
:101FC000099580912C0490912D04A0912E04B0913C
:101FD0002F040297A105B10509F0FFCF43E050E0BF
:101FE00060E070E040932C0450932D0460932E0425
:101FF00070932F04D0933104C093300410932904BC
:10200000009328048CB5809334048DB5817080933F
:102010003504809137048CBD80913604882319F0F3
:102020008DB5816002C08DB58E7F8DBD84E591E058
:102030000E94190D60E0809111030E94A521E0919A
:102040004A04F0914B040995E0914804F091490449
:102050000995672B682B692B61F5609128047091B5
:10206000290480913004909131040E94CD0D82E0CA
:1020700090E0A0E0B0E080932C0490932D04A09316
:102080002E04B0932F0461E0809111030E94A521DA
:102090000E94300D809134048CBD809135048823DA
:1020A00019F08DB5816002C08DB58E7F8DBD0E9407
:1020B0009D0F80912C0490912D04A0912E04B0913D
:1020C0002F040297A105B10509F0FFCF60E070E091
:1020D000CB01DF91CF911F910F91089510921E03B4
:1020E00080910E030C94FD1FFC011082118212825C
:1020F000138280E090E00895FC0110821182128228
:10210000138280E090E00895FC0110821182128217
:10211000138280E090E00895809110030E94DB21FB
:10212000892B49F480911F03811105C080911E0302
:1021300081110C94FE0E0895FC014083518362834B
:10214000738304960895FC01608371830296089559
:10215000680F791FFB01818190E0982F88272081EB
:10216000820F911D08950F931F93FB01E80FF91F34
:102170006381862F90E0A0E0B0E0982F8827772732
:102180006627028110E020E030E098011127002747
:10219000600F711F821F931F2081620F711D811DAF
:1021A000911D018110E020E030E0322F212F102F0F
:1021B0000027600F711F821F931F1F910F910895B9
:1021C000CF93DF9300D000D0CDB7DEB719821A824B
:1021D0001B821C82FC018581823039F1833009F435
:1021E00045C0813009F064C080914204909143045D
:1021F000892B89F0E0914204F0914304CE010196CD
:102200000995009741F060913E0470913F04298147
:102210003A81AC0108C060913E0470913F0420E017
:1022200030E040E050E081E041C080914004909176
:102230004104892B89F0E0914004F0914104CE01E2
:1022400001960995009741F060913E0470913F041A
:1022500029813A81AC0108C060913E0470913F042D
:1022600020E030E040E050E082E020C08091440473
:1022700090914504892B89F0E0914404F091450444
:10228000CE0101960995009741F060913E0470914E
:102290003F0429813A81AC0108C060913E047091ED
:1022A0003F0420E030E040E050E083E00E94B316BD
:1022B0000F900F900F900F90DF91CF9108954F9254
:1022C0005F926F927F928F929F92AF92BF92CF92C6
:1022D000DF92EF92FF926830710581059105A8F5B4
:1022E000223031054105510580F5E1E0F0E0062E90
:1022F00002C0EE0FFF1F0A94E2F7E095F0952F0160
:10230000662457FC6094762C80902F0190903001C9
:10231000A0903101B0903201482059206A207B20E2
:1023200069017A0104C0CC0CDD1CEE1CFF1C6A950F
:10233000D2F74C285D286E287F2840922F015092BA
:1023400030016092310170923201FF90EF90DF9086
:10235000CF90BF90AF909F908F907F906F905F9045
:102360004F9008958F929F92AF92BF92CF92DF923B
:10237000EF92FF920F931F93CF93DF93CDB7DEB70A
:1023800065970FB6F894DEBF0FBECDBF5C0161E06C
:1023900070E00E94A8106C01E12CF12C96FF6AC03D
:1023A000811521E4920709F065C065E070E0C50180
:1023B0000E94A8104C0187E0A80EB11C00E010E0BC
:1023C000C12CD12C76010815190579F062E070E076
:1023D000C5010E94A810C80ED91EE11CF11CE4E042
:1023E000AE0EB11C0F5F1F4FEECF80915404909141
:1023F00055048C0D9D1D9093550480935404809139
:10240000600490916104A0916204B09163048C0D0A
:102410009D1DAE1DBF1D8093600490936104A09329
:102420006204B09363044091600450916104609130
:1024300062047091630480915C0490915D04A091AA
:102440005E04B0915F04481759076A077B0709F0DB
:1024500055C080916404882309F450C0E09146047B
:10246000F091470420E040E050E069E970E080E04E
:1024700090E043C097FFDCC08034F0E89F0709F488
:1024800087C0B0F48430E0E89E0741F130F4815019
:102490009048029708F024C121C08031904809F08B
:1024A0001FC1D5011596CE010596FE01319628C0B3
:1024B0008115E4E89E0791F040F4803820E8920707
:1024C00069F08115924851F00BC18115F8E89F071A
:1024D00009F49EC08115994809F002C18091460413
:1024E00090914704892B51F0E0914604F091470404
:1024F00020E040E050E0C701B601099561E0F1C07D
:102500002D912193E817F907D9F7F50181858D837E
:1025100082858E8383858F8384858887D5011D96E8
:10252000FE01399681E090E08C0F9D1F0C962D9155
:102530002193E817F907D9F7D5015196FE013D9689
:1025400081E090E08C0F9D1F40962D912193E8171C
:10255000F907D9F7D5015596FE01719681E090E013
:102560008C0F9D1F44962D912193E817F907D9F7F9
:10257000F50184818D8B8091460490914704892BCD
:1025800009F4BCCFE0914604F091470425E13CC03A
:10259000F5E0AF0EB11C60E070E0C5010E94B31021
:1025A00069837A838B839C8364E070E0C5010E9419
:1025B000B3106D837E838F83988768E070E0C501D8
:1025C0000E94B31069877A878B879C876CE070E0E4
:1025D000C5010E94B3106D877E878F87988B60E15D
:1025E00070E0C5010E94B310698B7A8B8B8B9C8B3A
:1025F0008091460490914704892B09F47FCFE091A4
:102600004604F091470424E1AE014F5F5F4F73CF62
:102610008091460490914704892B09F46FCFE09193
:102620004604F0914704A5014B5F5F4F21E063CF63
:1026300023E0C21620E1D206E104F10421F08E501D
:1026400090410297B0F585010B5F1F4F64E070E089
:10265000C8010E94B310673C7F4F8F4F9F4F09F016
:102660003FC0F501448150E060E070E040935004C9
:1026700050935104609352047093530460E070E0EF
:10268000C8010E94B3106B017C0164E070E0C801D6
:102690000E94B310673C7F4F8F4F9F4F09F02ECFA2
:1026A00021E030E040E050E0C701B6010E945F1138
:1026B00025CF8091380490913904A0E0B0E0C8168D
:1026C000D906EA06FB0661F061E070E080E090E088
:1026D000C11420E1D206E104F10431F460E004C049
:1026E00060E070E080E090E065960FB6F894DEBFA1
:1026F0000FBECDBFDF91CF911F910F91FF90EF9053
:10270000DF90CF90BF90AF909F908F900895809171
:102710003A0490913B04892B21F460E070E0CB01F6
:10272000089580913C0490913D04FC012081243067
:10273000A1F70E94B211613071058105910569F719
:1027400010923B0410923A040E94B70E61E070E0D0
:1027500080E090E008954F925F926F927F928F9207
:102760009F92AF92BF92CF92DF92EF92FF920F9320
:102770001F93CF93DF93EC014B015A0100E010E06F
:1027800080E1482E96E2592E0E948C1080913A04E6
:1027900090913B04892BC1F3E0903C04F0903D0400
:1027A000F7018081843009F0F4C161E070E0C70175
:1027B0000E94A8108C01C7010E94B211672B682BE0
:1027C000692B09F0DAC16701F5E0CF0ED11C0830A2
:1027D00080E1180708F065C00630E0E11E0708F048
:1027E000E1C00230F2E01F0709F4DCC0D0F40D3084
:1027F000110568F40830110508F0D4C00130110546
:1028000008F4BBC10730110508F043C1CBC00D303F
:10281000110509F4C3C00130E2E01E0709F4BEC08F
:10282000ACC10330F0E11F07E8F4013080E1180784
:1028300008F0B8C00530E2E01E0708F4AFC007306A
:10284000F2E01F0709F099C1F7018481899360E0E4
:1028500070E0C6010E94B310AB01BC01CE010E9422
:102860009C108BC1043080E1180709F4C2C008F441
:10287000F0C060E070E0C6010E94B3106883798305
:102880008A839B8364E070E0C6010E94B3106C836E
:102890007D838E839F832896F7013D96DE01842DEC
:1028A00025C10131F0E11F0709F478C008F043C0E9
:1028B0000B30E0E11E0709F475C080F5093080E1B6
:1028C000180709F46FC008F0D8C060E070E0C601D6
:1028D0000E94B310688379838A839B8364E070E0ED
:1028E000C6010E94B3106C837D838E839F8368E052
:1028F00070E0C6010E94B310688779878A879B873A
:102900003E01FCE06F0E711C6CE070E0C6010E949D
:10291000B3106C877D878E879F872EC10F30F0E1C3
:102920001F0709F496C008F047C00D30E0E11E070C
:1029300009F45FC022C10530F0E21F0709F4DBC0D3
:1029400050F40231E0E11E0709F44BC00130F0E21F
:102950001F0720F512C10A3080E2180748F408303A
:10296000E0E21E07D8F40630F0E21F07B9F005C117
:102970000B3080E4180709F000C1F701858190E071
:10298000909355048093540461E070E0C6010E9466
:10299000A8109093570480935604EFC0F7018481E8
:1029A0008883EBC060E070E0C6010E94B3106883CA
:1029B00079838A839B83E1C060E070E0C6010E9456
:1029C000B310FE0161937193819391933F0164E091
:1029D00070E0C6010E94B3106C837D838E839F8359
:1029E000CBC060E070E0C6010E94A8109983888384
:1029F000C4C060E070E0C6010E94B31068837983B0
:102A00008A839B8364E070E0C6010E94B3106C83EC
:102A10007D838E839F833E01F8E06F0E711C68E01A
:102A200070E0C6010E94B310688779878A879B8708
:102A30002C853D854E855F85273C3F4F4F4F5F4F2F
:102A400009F09AC021E030E040E050E00E945F11C0
:102A500093C060E070E0C6010E94B3106883798380
:102A60008A839B8364E070E0C6010E94B3106C838C
:102A70007D838E839F83289680C0F70184818C8319
:102A800085819681A781B08588839983AA83BB833A
:102A900074C060E070E0C6010E94B310688379835F
:102AA0008A839B8364E070E0C6010E94B3106C834C
:102AB0007D838E839F8368E070E0C6010E94A8102A
:102AC000A0E0B0E088879987AA87BB876AE070E0BA
:102AD000C6010E94A810A0E0B0E08A879B87AC875F
:102AE000BD872C96F7017196DE01852D01900D9220
:102AF0008A95E1F742C0F601C7010996DE012191EE
:102B00002D93E817F907D9F7DF01FE013496CE01BE
:102B100008962D912193E817F907D9F7D7011D964B
:102B2000CE010C962D912193E817F907D9F7D7011B
:102B30005196CE0140962D912193E817F907D9F7C8
:102B4000D7015596CE0144962D912193E817F907A8
:102B5000D9F7D7015996CE014A962D912193E817BE
:102B6000F907D9F7D7015F96CE01CA962D91219327
:102B7000E817F907D9F701C0E30180913804909173
:102B800039040817190799F510923904109238047E
:102B90002EC0F701728063E070E0C7010E94A810A8
:102BA0006C018114910499F064E070E0C70105960E
:102BB0000E94B310F5016083718382839383462F53
:102BC00050E0B7016B5E7F4FC4010E944F29672D13
:102BD00070E0A601461B570B6B5F7F4F6E0D7F1D8C
:102BE000CE010E944F2910925B0410925A04109259
:102BF0003B0410923A040E94B70EF70180818430A2
:102C000039F40115F0E11F0719F4C7010E94E01023
:102C10008091380490913904892B09F0B5CD8091C9
:102C20005A0490915B04892B09F0AECD80E090E0CE
:102C3000DF91CF911F910F91FF90EF90DF90CF9098
:102C4000BF90AF909F908F907F906F905F904F90CC
:102C50000895683071058105910518F541E050E04F
:102C600002C0440F551F6A95E2F7662757FD60952D
:102C7000762F80912F0190913001A0913101B09178
:102C80003201482359236A237B2331E020E080E08E
:102C900090E0452B462B472B09F430E0632F722F31
:102CA000089561E070E080E090E008959C01CB0120
:102CB000309339042093380440E050E060E070E045
:102CC0000C94AB1321E030E030935B0420935A0462
:102CD0000C94AB130F931F93CF93DF931F92CDB739
:102CE000DEB78B0121E0FB012583BC01C8010696FC
:102CF00049830E94A3104981FC014083642F70E046
:102D00006C5F7F4FC8010E94A80F80E090E00F9099
:102D1000DF91CF911F910F910895EF92FF920F9342
:102D20001F93CF93DF938B01E90192E0FB01958321
:102D300086834783CE0DDF1DC40FD51FBE01C8019A
:102D400008960E94A310BE016B5F7F4FC8010E94CE
:102D5000A80F60E070E0CB01DF91CF911F910F9140
:102D6000FF90EF9008954F925F926F927F928F92B3
:102D70009F92AF92BF92CF92DF92EF92FF920F930A
:102D80001F93CF93DF93EB016A01890193E09D8349
:102D90002B0197E0490E511C8E83390182E0680EA9
:102DA000711CB301C2010E94A3107C01CE010B96DD
:102DB0005C01093E93E0190718F5B801C7010E94AC
:102DC000A310B801C7010E94A310A801B601C50154
:102DD0000E944F29B8016A5F7F4FCE01DF91CF91EA
:102DE0001F910F91FF90EF90DF90CF90BF90AF9029
:102DF0009F908F907F906F905F904F900C94A80F52
:102E000088EE882E83E0982EC801B4010E94F22833
:102E1000660F771F660D771DC7010E94A31068EE2D
:102E200073E0C7010E94A310F601D501C40101900F
:102E30000D920197E1F7085E134088E1C81A8CEF04
:102E4000D80A6EEE73E0CE010E94A80F5E0195E0F5
:102E5000A90EB11C0E948C10093E83E0180740F0B7
:102E6000780198EEE91A93E0F90A08EE13E002C03F
:102E7000E12CF12C1E830D83A801B601C2010E9432
:102E80004F29C00ED11EB8016E5F7F4FC5010E9451
:102E9000A80FE114F10411F08701DCCFDF91CF918D
:102EA0001F910F91FF90EF90DF90CF90BF90AF9068
:102EB0009F908F907F906F905F904F9008958F922A
:102EC0009F92AF92BF92CF92DF92EF92FF920F93B9
:102ED0001F93CF93DF9300D000D0CDB7DEB7490169
:102EE0005A01670178010FEF1FEF980109831A83D8
:102EF0002B833C8300913E0410913F04AB01BC0145
:102F0000C80109960E949C10B501A4010E949C1062
:102F1000B701A6010E949C104CE0B80181E090E14D
:102F20000E946A16BE016F5F7F4F81E090E10E94B0
:102F3000561669817A818B819C8170931605609306
:102F4000150520E030E0A9010E945F1169817A81B6
:102F50008B819C810F900F900F900F90DF91CF91FC
:102F60001F910F91FF90EF90DF90CF90BF90AF90A7
:102F70009F908F900895CF92DF92EF92FF920F93E0
:102F80001F93CF93DF9300D000D0CDB7DEB76B0196
:102F90007C018FEF9FEFDC0189839A83AB83BC8335
:102FA00000913E0410913F04B701A601C8010996A3
:102FB0000E949C1044E0B8018BE090E10E946A16E8
:102FC000BE016F5F7F4F8BE090E10E9456168981B2
:102FD0009A81909316058093150521E030E040E03A
:102FE00050E0C701B6010E945F1169817A818B812F
:102FF0009C810F900F900F900F90DF91CF911F91B8
:103000000F91FF90EF90DF90CF900895AF92BF9215
:10301000CF92DF92EF92FF920F931F93CF93DF93A4
:10302000CDB7DEB728970FB6F894DEBF0FBECDBF81
:103030005C017B018A012FEF3FEF3093160520934F
:103040001505673E7105D8F5C0903E04D0903F0449
:1030500048E050E060E070E0C60109960E949C10D4
:10306000A70160E070E00E949C10F50195012E0D13
:103070003F1DE217F30729F04191DC014D93CD018B
:10308000F8CF48E04E0DB60180E190E10E946A164B
:10309000BE016F5F7F4F80E190E10E9456168981EB
:1030A0009A8180931505909316054D815E816F81FD
:1030B0007885F801408351836283738302C08FEF68
:1030C0009FEF28960FB6F894DEBF0FBECDBFDF91FD
:1030D000CF911F910F91FF90EF90DF90CF90BF9015
:1030E000AF900895EF92FF920F931F93CF93DF93CA
:1030F00000D000D0CDB7DEB77A010FEF1FEF9801F7
:1031000009831A832B833C8300913E0410913F0472
:10311000AB01BC01C80109960E949C1048E050E038
:1031200060E070E00E949C1048E050E060E070E0D9
:103130000E949C10F70120E030E04191DC014D93AA
:10314000CD012F5F3F4F28303105B9F744E1B80179
:1031500087E090E10E946A16BE016F5F7F4F87E0B3
:1031600090E10E94561669817A818B819C817093CF
:103170001605609315050F900F900F900F90DF913B
:10318000CF911F910F91FF90EF9008954F925F9212
:103190006F927F928F929F92AF92BF92CF92DF9267
:1031A000EF92FF920F931F93CF93DF93CDB7DEB7CC
:1031B00060970FB6F894DEBF0FBECDBF6A0159010C
:1031C00080903E0490903F04AB01BC01C40109967D
:1031D0000E949C1044E150E060E070E00E949C106E
:1031E00044E150E060E070E00E949C1044E150E057
:1031F00060E070E00E949C1044E150E060E070E00C
:103200000E949C1041E050E060E070E0E114F104A5
:1032100019F040E050E0BA010E949C10C114D104A2
:1032200031F0F601408151816281738103C040E039
:1032300050E0BA010E949C10A114B10431F0F501D4
:10324000408151816281738103C040E050E0BA0146
:103250000E949C100115110531F0F8014081518147
:103260006281738103C040E050E0BA010E949C106B
:10327000E114F10449F1F7014081518162817381C8
:103280004115510561057105B1F444805580668092
:103290007780F8E84F16F3E15F06610471045CF48F
:1032A00028E8422E23E1522E612C712CF701448232
:1032B0005582668277820E949C10F7014481558175
:1032C000668177810E949C104CE2B40188E090E115
:1032D0000E946A16BE016F5F7F4F88E090E10E94F6
:1032E000561689819A81AB81BC81B7FD25C0C11476
:1032F000D10449F04D815E816F817885F60140836C
:10330000518362837383A114B10449F049855A85BE
:103310006B857C85F501408351836283738301153E
:10332000110581F04D855E856F857889F8014083B0
:1033300051836283738306C09093160580931505AD
:103340008FEF9FEF60960FB6F894DEBF0FBECDBF34
:10335000DF91CF911F910F91FF90EF90DF90CF9071
:10336000BF90AF909F908F907F906F905F904F90A5
:1033700008954F925F926F927F928F929F92AF9239
:10338000BF92CF92DF92EF92FF920F931F93CF9352
:10339000DF93CDB7DEB764970FB6F894DEBF0FBEEC
:1033A000CDBF8C010E94B1202B013C01680135E0AA
:1033B000D694C7943A95E1F7C8018F719927812C6B
:1033C000912C5401839404C0880C991CAA1CBB1C2A
:1033D0008A95D2F7C801AA2797FDA095BA2F8D87A5
:1033E0009E87AF87B88BCC0CDD1CCC0CDD1CA1E01C
:1033F000B0E0AC0FBD1FCA0EDB1EB8E0CB0ED11C77
:103400000F5F1F4FC801AA2797FDA095BA2F898B80
:103410009A8BAB8BBC8B8091500490915104A091FE
:103420005204B0915304892B8A2B8B2BA9F08091E5
:10343000500490915104A0915204B0915304909380
:1034400016058093150510925004109251041092A5
:103450005204109253045AC06D857E858F859889D9
:103460000E942916672B682B692B09F04AC00E941D
:10347000B12064197509860997096133754781057B
:10348000910508F041C08091540490915504892B16
:1034900029F519861A861B861C86F6018082918280
:1034A000A282B38219821A821B821C8288E893E16D
:1034B000A0E0B0E08D839E83AF83B887DE011196D4
:1034C0007D0100E010E020E030E0AE01475F5F4F9B
:1034D00069897A898B899C890E94C61880915404D5
:1034E00090915504892B09F496CF809154049091C2
:1034F00055040197909355048093540480E090E024
:1035000005C08FEF9FEF02C08DEF9FEF64960FB65F
:10351000F894DEBF0FBECDBFDF91CF911F910F9109
:10352000FF90EF90DF90CF90BF90AF909F908F90E3
:103530007F906F905F904F9008952F923F924F929F
:103540005F926F927F928F929F92AF92BF92CF9233
:10355000DF92EF92FF920F931F93CF93DF93CDB73C
:10356000DEB72C970FB6F894DEBF0FBECDBF1A01A1
:103570002801390100913E0410913F04AB01BC01C8
:10358000C80109960E949C10B301A2010E949C10E0
:10359000B701A6010E949C104CE0B80189A19AA134
:1035A0000E946A16BE016F5F7F4F89A19AA10E9497
:1035B00056168D819E81AF81B885181619061A0698
:1035C0001B062CF4A401B501C1010E9462168D8175
:1035D0009E8190931605809315052C960FB6F8944E
:1035E000DEBF0FBECDBFDF91CF911F910F91FF9036
:1035F000EF90DF90CF90BF90AF909F908F907F9093
:103600006F905F904F903F902F9008958F929F9270
:10361000AF92BF92CF92DF92EF92FF920F931F93E0
:103620001F921F92E0E1EF93E4E0EF93812C912C45
:10363000A12CB12C0E949D1A0F900F900F900F900B
:103640001F910F91FF90EF90DF90CF90BF90AF90C0
:103650009F908F9008952F923F924F925F926F921A
:103660007F928F929F92AF92BF92CF92DF92EF9212
:10367000FF920F931F93CF93DF93CDB7DEB767977A
:103680000FB6F894DEBF0FBECDBF6D877E878F87E4
:10369000988B5A8B498B2801390145018D859E8570
:1036A0000E94B919009709F0C2C080915C04909102
:1036B0005D04A0915E04B0915F040196A11DB11D4F
:1036C00080935C0490935D04A0935E04B0935F04C8
:1036D000A0903E04B0903F0408A919A92AA93BA9CB
:1036E0000138110521053105A9F00338110521051F
:1036F000310509F09AC0A3019201285F3F4F4F4F57
:103700005F4F2B8B3C8B4D8B5E8B85010E5D1F4F6E
:1037100028E10AC08501065E1F4F20E11CA61DA6F8
:103720001EA61FA6812C912C4D855E856F857889FC
:10373000C5010A962F8B0E949C102F89222E312CB6
:10374000A1014450510960E070E00E949C10B30157
:10375000A2010E949C10B701A6010E949C1028A9FA
:1037600039A94AA95BA9233831054105510561F4FE
:103770004B895C896D897E890E949C1048E050E0ED
:1037800060E070E00E949C10F801A989BA89CD011F
:1037900049895A89841B950BAC0160E070E044159F
:1037A0005505660577051CF48D918193F0CF88A9A6
:1037B00099A9AAA9BBA983389105A105B105C1F0B2
:1037C000ECA4FDA484019201A101B50188A90E9485
:1037D0008D1608A919A92AA93BA9033811052105A5
:1037E0003105D1F4BE016F5F7F4F8FE090E119C0CA
:1037F000DF01F401CF0188199909AC0160E070E0A4
:103800000CA51DA52EA53FA54017510762077307FC
:10381000BCF681918D93EECFBE016F5F7F4F83E049
:1038200090E10E945616C20102C08FEF9FEF67968B
:103830000FB6F894DEBF0FBECDBFDF91CF911F91C1
:103840000F91FF90EF90DF90CF90BF90AF909F903F
:103850008F907F906F905F904F903F902F90089542
:10386000AF92BF92CF92DF92EF92FF920F931F938E
:103870001F921F921F92E1E8EF931F921F921F92D7
:103880001F92A12CB12C0E942B1B2DB73EB7285F95
:103890003F4F0FB6F8943EBF0FBE2DBF1F910F9143
:1038A000FF90EF90DF90CF90BF90AF900895CF92B0
:1038B000DF92EF92FF920F931F93CF93DF931F92AC
:1038C000CDB7DEB76B018A0141325105A8F5E09012
:1038D0003E04F0903F04AC0160E070E0C70109963F
:1038E0000E949C1048E050E060E070E00E949C1054
:1038F000A80160E070E00E949C10F6019601200F84
:10390000311FE217F30729F04191DC014D93CD01FE
:10391000F8CF4CE0400FB70181E190E10E946A16B8
:10392000BE016F5F7F4F81E190E10E945616898151
:10393000992787FD909502C08FEF9FEF0F90DF9141
:10394000CF911F910F91FF90EF90DF90CF9008954E
:1039500021E030E030933B0420933A0490933D04FF
:1039600080933C040C948713AF92BF92CF92DF9266
:10397000EF92FF920F931F93709341046093400462
:1039800050934304409342043093450420934404ED
:103990001093490400934804F0924B04E0924A04C7
:1039A000D0924D04C0924C04B0924F04A0924E04A9
:1039B000909347048093460481E0809364041F91B0
:1039C0000F91FF90EF90DF90CF90BF90AF90089550
:1039D000CF92DF92EF92FF92CF93DF93EC011092A0
:1039E0005C0410925D0410925E0410925F041092C9
:1039F00060041092610410926204109263041092A9
:103A00003904109238041092550410925404109204
:103A100057041092560410925904109258041092B0
:103A20005B0410925A0410925004109251041092A8
:103A300052041092530410923B0410923A041092D4
:103A40003D0410923C0480E293E090933F04809305
:103A50003E0488EA9CE10E943C0DE0914804F0910C
:103A6000490409956B017C01E0914E04F0914F04EB
:103A700081E00995CD28CE28CF2889F0E09148042F
:103A8000F09149040995672B682B692BB9F7609170
:103A90003E0470913F04CD2BA9F480E014C0E09166
:103AA0004804F09149040995672B682B692BB9F3F9
:103AB000E0914804F09149040995672B682B692B24
:103AC000B9F7E5CF82E0FB01818741E080E090E437
:103AD0000E946A1660E070E080E090E40E94561652
:103AE00060913E0470913F0440E08BE090E40E94BE
:103AF0006A1660E070E08BE090E4DF91CF91FF9078
:103B0000EF90DF90CF900C9456162F923F924F92E9
:103B10005F926F927F928F929F92AF92BF92CF925D
:103B2000DF92EF92FF920F931F93CF93DF93CDB766
:103B3000DEB760970FB6F894DEBF0FBECDBF6B87C0
:103B40007C878D879E871A01280139019E012F5F8E
:103B50003F4F86E0F90111928A95E9F78FEF9FEFC9
:103B6000DC018F839887A987BA8700913E04109162
:103B70003F044CE150E060E070E0C80109962F87F7
:103B8000388B0E949C10B301A2010E949C104B85AF
:103B90005C856D857E850E949C10B301A201405F0B
:103BA0005F4F6F4F7F4F0E949C10B501A4010E9490
:103BB0009C1060E070E00E94A3102F853889E1140A
:103BC000F10479F0D701FC0120E030E04D91419300
:103BD0002F5F3F4F26303105C9F70696DC01F10112
:103BE0000BC0F901DC019E01295F3F4F41914D93CC
:103BF000E217F307D9F7F1CFAF014219530960E09B
:103C000070E044155505660577051CF481918D9388
:103C1000F3CF81149104A104B10481F54CE1480D66
:103C2000440DB80181E090E00E946A16BE01695F10
:103C30007F4F81E090E00E9456166F8178858985DC
:103C40009A85709316056093150560960FB6F894E3
:103C5000DEBF0FBECDBFDF91CF911F910F91FF90BF
:103C6000EF90DF90CF90BF90AF909F908F907F901C
:103C70006F905F904F903F902F900895C114D104A2
:103C800069F2F601AF014C195D0960E070E048157A
:103C900059056A057B0514F681918D93F3CFCF9377
:103CA000DF9300D000D0CDB7DEB78FEF9FEFDC0100
:103CB00089839A83AB83BC8360913E0470913F04F7
:103CC00040E082E090E00E946A16BE016F5F7F4F85
:103CD00082E090E00E94561669817A818B819C81F6
:103CE00070931605609315050F900F900F900F902D
:103CF000DF91CF9108958F929F92AF92BF92CF9212
:103D0000DF92EF92FF920F931F93CF93DF9300D038
:103D100000D0CDB7DEB749015A01670178010FEF36
:103D20001FEF980109831A832B833C8300913E0483
:103D300010913F04AB01BC01C80109960E949C1080
:103D4000B501A4010E949C10B701A6010E949C101D
:103D50004CE0B80184E090E00E946A16BE016F5FFB
:103D60007F4F84E090E00E94561669817A818B81B2
:103D70009C810F900F900F900F90DF91CF911F912A
:103D80000F91FF90EF90DF90CF90BF90AF909F90FA
:103D90008F9008950F931F93CF93DF9300D000D09F
:103DA000CDB7DEB7AB01BC0100913E0410913F04DA
:103DB000C80109960E949C108FEF9FEFDC01898358
:103DC0009A83AB83BC8344E0B80186E090E00E9414
:103DD0006A16BE016F5F7F4F86E090E00E94561624
:103DE00069817A818B819C810F900F900F900F9049
:103DF000DF91CF911F910F9108954F925F926F9233
:103E00007F92AF92BF92CF92DF92EF92FF920F9389
:103E10001F93CF93DF93CDB7DEB72C970FB6F894EF
:103E2000DEBF0FBECDBF2B013C012D833E834F83F0
:103E30005887E986FA860B871C87FDA4EEA40091BB
:103E40003E0410913F0444E250E060E070E0C8019D
:103E500009960E949C10B301A2010E949C104D8102
:103E60005E816F8178850E949C1049855A856B859B
:103E70007C850E949C10B601A5010E949C104D8D6E
:103E80005E8D6F8D78A10E949C1049A15AA16BA1F3
:103E90007CA10E949C104DA15EA16FA178A50E94FB
:103EA0009C1049A55AA56BA57CA50E949C10EF2DDE
:103EB000FE2D20E030E04191DC014D93CD012F5FDC
:103EC0003F4F20343105B9F744E6B80183E090E074
:103ED0000E946A16BE016F5F7F4F83E090E00E94F0
:103EE000561669817A818B819C812C960FB6F89445
:103EF000DEBF0FBECDBFDF91CF911F910F91FF901D
:103F0000EF90DF90CF90BF90AF907F906F905F90D9
:103F10004F9008950F931F93CF93DF9300D000D05D
:103F2000CDB7DEB7AB01BC01DB01CA018870907868
:103F3000AA27BB2788309048A105B10571F41092DB
:103F40006404483080E858076105710551F1477FE6
:103F50005F7766277727506803C081E08093640409
:103F60008FEF9FEFDC0189839A83AB83BC83009141
:103F70003E0410913F04C80109960E949C1044E041
:103F8000B80188E090E00E946A16BE016F5F7F4F23
:103F900088E090E00E94561669817A818B819C812D
:103FA00003C060E070E0CB010F900F900F900F9076
:103FB000DF91CF911F910F9108958230E8F4E82F9F
:103FC000F0E0EE0FFF1FEB59FB4F718360838130F0
:103FD00041F0809169008C7F842B80936900E89A7E
:103FE000089580916900440F551F440F551F837F2A
:103FF000842B80936900E99A0895823068F48130B7
:1040000011F0E89801C0E998E82FF0E0EE0FFF1FEB
:10401000EB59FB4F1182108208951F920F920FB639
:104020000F9211242F933F934F935F936F937F933E
:104030008F939F93AF93BF93EF93FF93809165040A
:1040400090916604892B29F0E0916504F091660453
:104050000995FF91EF91BF91AF919F918F917F91C2
:104060006F915F914F913F912F910F900FBE0F90E5
:104070001F9018951F920F920FB60F9211242F9335
:104080003F934F935F936F937F938F939F93AF93E0
:10409000BF93EF93FF938091670490916804892BFD
:1040A00029F0E0916704F09168040995FF91EF9180
:1040B000BF91AF919F918F917F916F915F914F9140
:1040C0003F912F910F900FBE0F901F9018951F9248
:1040D0000F920FB60F9211242F933F938F939F93BC
:1040E000AF93BF9380916A0490916B04A0916C048C
:1040F000B0916D043091690423E0230F2D3720F433
:104100000196A11DB11D05C026E8230F0296A11D31
:10411000B11D2093690480936A0490936B04A0936B
:104120006C04B0936D0480916E0490916F04A09123
:104130007004B09171040196A11DB11D80936E04AD
:1041400090936F04A0937004B0937104BF91AF91EA
:104150009F918F913F912F910F900FBE0F901F90C5
:1041600018952FB7F89460916A0470916B04809150
:104170006C0490916D042FBF08953FB7F89480911F
:104180006E0490916F04A0917004B091710426B5F3
:10419000A89B05C02F3F19F00196A11DB11D3FBF7F
:1041A0006627782F892F9A2F620F711D811D911D0F
:1041B00042E0660F771F881F991F4A95D1F708952F
:1041C000CF92DF92EF92FF92CF93DF936B017C014E
:1041D0000E94BD20EB01C114D104E104F10489F077
:1041E0000E94D2260E94BD206C1B7D0B683E73404E
:1041F00090F381E0C81AD108E108F108C851DC4FFA
:10420000EACFDF91CF91FF90EF90DF90CF900895AC
:10421000789484B5826084BD84B5816084BD85B5A1
:10422000826085BD85B5816085BDEEE6F0E0808168
:1042300081608083E1E8F0E0108280818260808389
:10424000808181608083E0E8F0E08081816080830C
:10425000E1EBF0E0808184608083E0EBF0E080813E
:1042600081608083EAE7F0E08081846080838081E0
:104270008260808380818160808380818068808388
:104280001092C1000895833081F028F4813099F0B4
:104290008230A1F008958730A9F08830B9F08430D9
:1042A000D1F4809180008F7D03C0809180008F7752
:1042B00080938000089584B58F7702C084B58F7D88
:1042C00084BD08958091B0008F7703C08091B000C5
:1042D0008F7D8093B0000895CF93DF9390E0FC0131
:1042E000E957FD4F2491FC01E556FD4F8491882349
:1042F00049F190E0880F991FFC01ED53FD4FA59106
:10430000B49187549D4FFC01C591D4919FB7611121
:1043100008C0F8948C91209582238C938881822305
:104320000AC0623051F4F8948C91322F3095832377
:104330008C938881822B888304C0F8948C91822B83
:104340008C939FBFDF91CF9108950F931F93CF93CD
:10435000DF931F92CDB7DEB7282F30E0F901ED587B
:10436000FD4F8491F901E957FD4F1491F901E5568C
:10437000FD4F04910023C9F0882321F069830E9436
:1043800043216981E02FF0E0EE0FFF1FE754FD4F5E
:10439000A591B4919FB7F8948C91611103C01095C9
:1043A000812301C0812B8C939FBF0F90DF91CF9110
:1043B0001F910F910895CF93DF93282F30E0F901DB
:1043C000ED58FD4F8491F901E957FD4FD491F90162
:1043D000E556FD4FC491CC2391F081110E944321F9
:1043E000EC2FF0E0EE0FFF1FE155FD4FA591B491CA
:1043F0002C912D2381E090E021F480E002C080E048
:1044000090E0DF91CF910895FC01818D228D90E0A5
:10441000805C9F4F821B91098F7399270895FC013F
:10442000918D828D981731F0828DE80FF11D858D69
:1044300090E008958FEF9FEF0895FC01918D828D9C
:10444000981761F0828DDF01A80FB11D5D968C91E8
:10445000928D9F5F9F73928F90E008958FEF9FEFF3
:10446000089581EA93E2892B49F080E090E0892B5E
:1044700029F00E94A12381110C9400000895FC01F1
:10448000848DDF01A80FB11DA35ABF4F2C91848DDD
:1044900090E001968F739927848FA689B7892C9312
:1044A000A089B1898C9180648C93938D848D9813AD
:1044B00006C00288F389E02D80818F7D8083089576
:1044C000CF93DF93EC01888D8823C9F0EA89FB89BB
:1044D000808185FD05C0A889B9898C9186FD0FC0B2
:1044E0000FB607FCF5CF808185FFF2CFA889B98987
:1044F0008C9185FFEDCFCE010E943F22E7CFDF9167
:10450000CF910895CF92DF92FF920F931F93CF9395
:10451000DF931F92CDB7DEB76C0181E0D6015896CC
:104520008C9358975B969C915B975C968C915C976B
:10453000981307C05096ED91FC915197808185FDAD
:104540002EC0F601038D10E00F5F1F4F0F73112770
:10455000F02EF601848DF81211C00FB607FCF9CFCA
:10456000D6015096ED91FC915197808185FFF1CF56
:10457000C60169830E943F226981EBCF838DE80FDA
:10458000F11DE35AFF4F6083D6015B960C935B9756
:104590005296ED91FC915397808180620CC0D601B8
:1045A0005696ED91FC91579760835096ED91FC9152
:1045B000519780818064808381E090E00F90DF914B
:1045C000CF911F910F91FF90DF90CF900895BF92F0
:1045D000CF92DF92EF92FF92CF93DF93EC016A01CB
:1045E0007B01B22EE889F98982E08083411581EE52
:1045F000580761057105A1F060E079E08DE390E076
:10460000A70196010E94062921503109410951094B
:104610005695479537952795211580E1380798F0ED
:10462000E889F989108260E874E88EE190E0A701DA
:1046300096010E94062921503109410951095695D8
:10464000479537952795EC85FD853083EE85FF8569
:104650002083188EEC89FD89B082EA89FB898081EC
:1046600080618083EA89FB89808188608083EA8910
:10467000FB89808180688083EA89FB8980818F7DC6
:104680008083DF91CF91FF90EF90DF90CF90BF902C
:1046900008951F920F920FB60F9211242F938F93AC
:1046A0009F93EF93FF93E0918204F09183048081C4
:1046B000E0918804F091890482FD12C0908180917C
:1046C0008B048F5F8F7320918C04821751F0E091DF
:1046D0008B04F0E0EE58FB4F958F80938B0401C064
:1046E0008081FF91EF919F918F912F910F900FBE3D
:1046F0000F901F9018951F920F920FB60F921124D2
:104700002F933F934F935F936F937F938F939F93D9
:10471000AF93BF93EF93FF9382E794E00E943F2211
:10472000FF91EF91BF91AF919F918F917F916F9189
:104730005F914F913F912F910F900FBE0F901F905F
:10474000189582E794E00E94042221E0892B09F465
:1047500020E0822F0895109275041092740488EE60
:1047600093E0A0E0B0E08093760490937704A09368
:104770007804B09379048FEB91E090937304809365
:10478000720485EC90E090937F0480937E0484EC27
:1047900090E0909381048093800480EC90E090936B
:1047A00083048093820481EC90E09093850480934D
:1047B000840482EC90E0909387048093860486ECD6
:1047C00090E0909389048093880410928B04109257
:1047D0008C0410928D0410928E040895AF92BF92B3
:1047E000CF92DF92EF92FF920F931F93CF93DF93BD
:1047F0006C017B01C0E0D0E000E010E0F601EC0FBE
:10480000FD1F4AE050E06281C7010E94A1255C01C2
:104810006EE2C7010E94C2248A0D9B1D080F191F5A
:104820002196C330D10551F74AE050E0F601658189
:10483000C7010E94A125800F911FDF91CF911F9189
:104840000F91FF90EF90DF90CF90BF90AF900895C1
:104850000F93FC018FEC91E091838083628343830B
:10486000248305830F9108952FEC31E0FC013183FF
:104870002083428353836483758308958FEC91E092
:104880009093100580930F05109211051092120558
:104890001092130510921405089508950E9408219E
:1048A0000E944D240E943602C1E3D2E20E944A04D3
:1048B0002097E1F30E943122F9CFCF92DF92EF925D
:1048C000FF920F931F93CF93DF936C017A01EB015B
:1048D000E60EF71E00E010E0CE15DF0561F06991ED
:1048E000D601ED91FC910190F081E02DC601099572
:1048F000080F191FF1CFC801DF91CF911F910F91C0
:10490000FF90EF90DF90CF9008956115710581F0D1
:10491000DB010D900020E9F7AD0141505109461B24
:10492000570BDC01ED91FC910280F381E02D09949D
:1049300080E090E00895EF92FF920F931F93CF9342
:10494000DF938C01FB01C0E0D0E064917F018FEF29
:10495000E81AF80A662361F0D801ED91FC91019004
:10496000F081E02DC8010995C80FD91FF701EDCFDF
:10497000CE01DF91CF911F910F91FF90EF9008959D
:104980000C948524DC01ED91FC910190F081E02DE7
:1049900009946CE971E00C9485240F931F93CF93D5
:1049A000DF93EC010E949B248C01CE010E94C9245C
:1049B000800F911FDF91CF911F910F9108950F9359
:1049C0001F93CF93DF93EC010E9485248C01CE01CD
:1049D0000E94C924800F911FDF91CF911F910F91E9
:1049E00008958F929F92AF92BF92CF92DF92EF92F3
:1049F000FF920F931F93CF93DF93CDB7DEB7A197AD
:104A00000FB6F894DEBF0FBECDBF7C01C42EE52FDC
:104A1000CB01D22E19A221E02D1510F02AE0D22EC2
:104A20008E010F5D1F4F8D2C912CA12CB12C6C2D64
:104A30007E2FA50194010E9406298C2DD29E8019FB
:104A40001124015011098A3014F4805D01C0895C81
:104A5000F8018083211531054105510521F0C22E51
:104A6000E32FCA01E4CFB801C7010E948524A196B3
:104A70000FB6F894DEBF0FBECDBFDF91CF911F916F
:104A80000F91FF90EF90DF90CF90BF90AF909F90ED
:104A90008F900895CF92DF92EF92FF920F931F9322
:104AA000CF93DF93EC016A017B012115310579F485
:104AB000E881F9810190F081E02D642FDF91CF91A1
:104AC0001F910F91FF90EF90DF90CF9009942A30C3
:104AD0003105E9F477FF1AC06DE20E94C2248C010F
:104AE00044275527BA014C195D096E097F092AE050
:104AF000CE010E94F124800F911FDF91CF911F9171
:104B00000F91FF90EF90DF90CF9008952AE0B701CA
:104B1000A601CE01DF91CF911F910F91FF90EF90F1
:104B2000DF90CF900C94F1242115310541F4DC0184
:104B3000ED91FC910190F081E02D642F09940C948B
:104B4000F1249A01462F50E060E070E00C94942527
:104B50000F931F93CF93DF93EC019A01462F50E000
:104B600060E070E00E9494258C01CE010E94C9246F
:104B7000800F911FDF91CF911F910F9108950F9397
:104B80001F93CF93DF93EC019A01AB0160E070E0DB
:104B90000E9494258C01CE010E94C924800F911F90
:104BA000DF91CF911F910F9108954F925F926F9275
:104BB0007F928F929F92AF92BF92CF92DF92EF92AD
:104BC000FF920F931F93CF93DF93EC016A017B0158
:104BD000B22E9A01AB01C701B6010E94EE288823CC
:104BE00019F061ED71E027C026013701E89477F8EC
:104BF0002FEF3FEF4FE75FE7C301B2010E94EE28BE
:104C000081110DC02FEF3FEF4FE75FE7C301B20106
:104C10000E94382718161CF465ED71E00CC02FEFC8
:104C20003FEF4FE75FE4C701B6010E9487281816DF
:104C3000ACF469ED71E0CE01DF91CF911F910F913E
:104C4000FF90EF90DF90CF90BF90AF909F908F90AC
:104C50007F906F905F904F900C9485242FEF3FEFE3
:104C60004FE75FECC701B6010E94382787FDE1CF0F
:104C700020E030E0A901C701B6010E94382787FF74
:104C80000AC06DE2CE010E94C2248C01F7FAF094B2
:104C9000F7F8F09402C000E010E0A12C60E070E0B2
:104CA00080E09FE3AB1441F020E030E040E251E4CB
:104CB0000E943C27A394F6CF9B01AC01C701B6012B
:104CC0000E94D4266B017C010E94A9272B013C0184
:104CD0000E94D5279B01AC01C701B6010E94D326D3
:104CE0006B017C012AE0B301A201CE010E94F124F4
:104CF000080F191FBB2039F06DED71E0CE010E9445
:104D00008524080F191F7B2C772041F120E030E02B
:104D100040E251E4C701B6010E948B286B017C017F
:104D20000E94A4274B01AA2497FCA094BA2C2AE045
:104D300030E0B501A401CE010E944A25080F191FD9
:104D4000C501B4010E94D7279B01AC01C701B60180
:104D50000E94D3266B017C017A94D6CFC801DF91E3
:104D6000CF911F910F91FF90EF90DF90CF90BF9068
:104D7000AF909F908F907F906F905F904F9008952D
:104D80000F931F93CF93DF93EC010E94D5258C01E5
:104D9000CE010E94C924800F911FDF91CF911F91F6
:104DA0000F91089508955058BB27AA270ED075C1BA
:104DB00066D130F06BD120F031F49F3F11F41EF436
:104DC0005BC10EF4E095E7FB51C1E92F77D180F389
:104DD000BA17620773078407950718F071F49EF5F8
:104DE0008FC10EF4E0950B2EBA2FA02D0B01B90147
:104DF00090010C01CA01A0011124FF27591B99F051
:104E0000593F50F4503E68F11A16F040A22F232F5C
:104E1000342F4427585FF3CF469537952795A795AC
:104E2000F0405395C9F77EF41F16BA0B620B730B53
:104E3000840BBAF09150A1F0FF0FBB1F661F771FC4
:104E4000881FC2F70EC0BA0F621F731F841F48F479
:104E5000879577956795B795F7959E3F08F0B3CFFF
:104E60009395880F08F09927EE0F979587950895E9
:104E7000D9D008F481E008950CD00FC107D140F0DB
:104E8000FED030F021F45F3F19F0F0C0511139C16C
:104E9000F3C014D198F39923C9F35523B1F3951BAB
:104EA000550BBB27AA2762177307840738F09F5F4B
:104EB0005F4F220F331F441FAA1FA9F333D00E2EBA
:104EC0003AF0E0E830D091505040E695001CCAF727
:104ED00029D0FE2F27D0660F771F881FBB1F2617EC
:104EE00037074807AB07B0E809F0BB0B802DBF01BF
:104EF000FF2793585F4F2AF09E3F510568F0B6C0D8
:104F000000C15F3FECF3983EDCF38695779567959B
:104F1000B795F7959F5FC9F7880F911D969587956F
:104F200097F90895E1E0660F771F881FBB1F62178E
:104F300073078407BA0720F0621B730B840BBA0B4C
:104F4000EE1F88F7E095089504D06894B111D9C098
:104F50000895BCD088F09F5790F0B92F9927B7518A
:104F6000A0F0D1F0660F771F881F991F1AF0BA952D
:104F7000C9F712C0B13081F0C3D0B1E00895C0C00C
:104F8000672F782F8827B85F39F0B93FCCF3869523
:104F900077956795B395D9F73EF490958095709580
:104FA00061957F4F8F4F9F4F0895E89409C097FBFD
:104FB0003EF490958095709561957F4F8F4F9F4FF0
:104FC0009923A9F0F92F96E9BB279395F695879534
:104FD00077956795B795F111F8CFFAF4BB0F11F4F7
:104FE00060FF1BC06F5F7F4F8F4F9F4F16C088239E
:104FF00011F096E911C0772321F09EE8872F762FD4
:1050000005C0662371F096E8862F70E060E02AF014
:105010009A95660F771F881FDAF7880F9695879500
:1050200097F90895990F0008550FAA0BE0E8FEEFD5
:1050300016161706E807F907C0F012161306E4075C
:10504000F50798F0621B730B840B950B39F40A2655
:1050500061F0232B242B252B21F408950A2609F433
:10506000A140A6958FEF811D811D089597F99F6737
:1050700080E870E060E008959FEF80EC08950024E0
:105080000A941616170618060906089500240A94AD
:1050900012161306140605060895092E0394000C33
:1050A00011F4882352F0BB0F40F4BF2B11F460FFC2
:1050B00004C06F5F7F4F8F4F9F4F089557FD9058EB
:1050C000440F551F59F05F3F71F04795880F97FBCC
:1050D000991F61F09F3F79F0879508951216130686
:1050E0001406551FF2CF4695F1DF08C016161706B5
:1050F0001806991FF1CF86957105610508940895EA
:10510000E894BB2766277727CB0197F908958ADFB4
:1051100008F48FEF08950BD0C0CFB1DF28F0B6DFD1
:1051200018F0952309F0A2CFA7CF1124EACFC6DF4C
:10513000A0F3959FD1F3950F50E0551F629FF001AA
:10514000729FBB27F00DB11D639FAA27F00DB11D03
:10515000AA1F649F6627B00DA11D661F829F22278C
:10516000B00DA11D621F739FB00DA11D621F839F13
:10517000A00D611D221F749F3327A00D611D231FE9
:10518000849F600D211D822F762F6A2F11249F5737
:1051900050408AF0E1F088234AF0EE0FFF1FBB1F5A
:1051A000661F771F881F91505040A9F79E3F5105F9
:1051B00070F05CCFA6CF5F3FECF3983EDCF38695B2
:1051C00077956795B795F795E7959F5FC1F7FE2BA4
:1051D000880F911D9695879597F9089523DF880B81
:1051E000990B0895AA1BBB1B51E107C0AA1FBB1F47
:1051F000A617B70710F0A61BB70B881F991F5A9563
:10520000A9F780959095BC01CD010895A1E21A2ED1
:10521000AA1BBB1BFD010DC0AA1FBB1FEE1FFF1F5A
:10522000A217B307E407F50720F0A21BB30BE40BAA
:10523000F50B661F771F881F991F1A9469F76095F1
:105240007095809590959B01AC01BD01CF010895AB
:10525000EE0FFF1F0590F491E02D0994EF920F934C
:105260001F93CF93DF93E80147FF02C034E101C0F1
:1052700034E0E42FFF27E7FDF095F7FF03C0F19539
:10528000E195F109E32E022F2E2FAE010E944C2B47
:10529000CE01DF91CF911F910F91EF900895FB0107
:1052A000DC0102C001900D9241505040D8F70895A2
:1052B000AEE0B0E0EEE5F9E20C94562E0D891E89C1
:1052C0008EE08C831A8309838FEF9FE79E838D8303
:1052D000AE01475E5F4F6F89788DCE0101960E94C7
:1052E0007A29EF81F885E00FF11F10822E96E4E015
:1052F0000C94722EACE0B0E0E0E8F9E20C94482E99
:105300007C016B018A01FC0117821682838181FF77
:10531000BDC1CE0101964C01F7019381F60193FDC9
:10532000859193FF81916F01882309F4ABC1853288
:1053300039F493FD859193FF81916F01853229F4B2
:10534000B70190E00E94B82DE7CF512C312C20E01E
:105350002032A0F48B3269F030F4803259F083327D
:1053600069F420612CC08D3239F0803339F421602A
:1053700026C02260246023C0286021C027FD27C0EA
:1053800030ED380F3A3078F426FF06C0FAE05F9E21
:10539000300D1124532E13C08AE0389E300D112495
:1053A000332E20620CC08E3221F426FD6BC12064A6
:1053B00006C08C3611F4206802C0883641F4F6012C
:1053C00093FD859193FF81916F018111C1CF982F3A
:1053D0009F7D9554933028F40C5F1F4FFFE3F983B2
:1053E0000DC0833631F0833771F0833509F05BC02F
:1053F00022C0F801808189830E5F1F4F44244394AB
:10540000512C540115C03801F2E06F0E711CF801E7
:10541000A080B18026FF03C0652D70E002C06FEF51
:105420007FEFC5012C870E94AD2D2C0183012C85B7
:105430002F77222E17C03801F2E06F0E711CF80191
:10544000A080B18026FF03C0652D70E002C06FEF21
:105450007FEFC5012C870E94A22D2C012C8520688E
:10546000222E830123FC1BC0832D90E04816590691
:10547000B0F4B70180E290E00E94B82D3A94F4CFE6
:10548000F50127FC859127FE81915F01B70190E02E
:105490000E94B82D31103A94F1E04F1A510841148E
:1054A000510471F7E5C0843611F0893639F5F801F9
:1054B00027FF07C060817181828193810C5F1F4F3C
:1054C00008C060817181882777FD8095982F0E5FD5
:1054D0001F4F2F76B22E97FF09C09095809570953B
:1054E00061957F4F8F4F9F4F2068B22E2AE030E0AA
:1054F000A4010E94EA2DA82EA81844C0853729F4DB
:105500002F7EB22E2AE030E025C0F22FF97FBF2E89
:105510008F36C1F018F4883579F0B4C0803719F0AF
:10552000883721F0AFC02F2F2061B22EB4FE0DC0FE
:105530008B2D8460B82E09C024FF0AC09F2F96606F
:10554000B92E06C028E030E005C020E130E002C0FE
:1055500020E132E0F801B7FE07C0608171818281ED
:1055600093810C5F1F4F06C06081718180E090E0E5
:105570000E5F1F4FA4010E94EA2DA82EA818FB2D34
:10558000FF77BF2EB6FE0BC02B2D2E7FA51450F437
:10559000B4FE0AC0B2FC08C02B2D2E7E05C07A2CAA
:1055A0002B2D03C07A2C01C0752C24FF0DC0FE01E9
:1055B000EA0DF11D8081803311F4297E09C022FF9C
:1055C00006C07394739404C0822F867809F0739494
:1055D00023FD13C020FF06C05A2C731418F4530C7B
:1055E0005718732C731468F4B70180E290E02C878D
:1055F0000E94B82D73942C85F5CF731410F43718CE
:1056000001C0312C24FF12C0B70180E390E02C8749
:105610000E94B82D2C8522FF17C021FF03C088E50A
:1056200090E002C088E790E0B7010CC0822F867836
:1056300059F021FD02C080E201C08BE227FD8DE21E
:10564000B70190E00E94B82DA51438F4B70180E3AB
:1056500090E00E94B82D5A94F7CFAA94F401EA0D75
:10566000F11D8081B70190E00E94B82DA110F5CF07
:10567000332009F451CEB70180E290E00E94B82DAA
:105680003A94F6CFF7018681978102C08FEF9FEFA2
:105690002C96E2E10C94642E6F927F929F92AF92CF
:1056A000BF92CF92DF92EF92FF920F931F93CF930F
:1056B000DF93CDB7DEB729970FB6F894DEBF0FBEE4
:1056C000CDBF6A01B22E102F0C3320F4FF24F394C7
:1056D000F00E02C04CE3F42E0F2D27E0AE014F5F19
:1056E0005F4F0E94CA2C7981272F2970213031F019
:1056F000E1FC06C0E0FC06C060E005C06DE203C04E
:105700006BE201C060E2AE2DA07173FF36C066236C
:1057100011F084E001C083E08B1510F4B81A01C0C9
:10572000B12CA1110BC0F6018B2D90E2882319F04A
:1057300091938150FBCFCB0CD11CB12C662331F05F
:10574000F601608396012F5F3F4F6901C601039602
:10575000E2FE05C02EE4F601208331E404C02EE60B
:10576000F601208331E631832283FC012B2D30E2C8
:105770002223F1F131932150FBCF72FF40C0662309
:1057800011F084E001C083E08B1510F4B81A01C059
:10579000B12CA1110BC0F6018B2D90E2882319F0DA
:1057A00091938150FBCFCB0CD11CB12C662331F0EF
:1057B000F601608396012F5F3F4F6901C601039692
:1057C000E2FE07C029E4F60120832EE4218326E4CB
:1057D00006C029E6F60120832EE6218326E62283F1
:1057E000FC012B2D30E2222319F031932150FBCF05
:1057F000FC01EB0DF11D10828EEF9FEFB7C0B1E001
:10580000611101C0B0E04B2F50E01816190624F4C6
:105810009C012F5F3F4F02C021E030E0240F351F75
:10582000112329F0412F50E04F5F5F4F02C040E04D
:1058300050E0420F531F2B2D30E04217530714F452
:10584000B41A01C0B12C2E2D287159F4F6012B2D5C
:1058500030E2222319F031932150FBCFCB0CD11C25
:10586000B12CBB2331F0F601608396012F5F3F4FCF
:105870006901A1110BC0F6012B2D30E3222319F091
:1058800031932150FBCFCB0CD11CB12CF80E0A81E7
:10589000372F3071A32E74FF03C0013309F4FA943B
:1058A0001F142CF42F2D293018F028E001C021E01E
:1058B000682F392F97FF02C060E030E0462F532F4A
:1058C000612C712C3EE2932EBC01621B71099B017D
:1058D000DC01A41BB50BE1E0F0E0EC0FFD1FAE0F07
:1058E000BF1FE12EF12CF194E194F1084F3FFFEF3F
:1058F0005F0731F4F6019082B6016F5F7F4F6B0155
:10590000841795074CF02417350734F4BD01660D54
:10591000771DFB01118101C010E341505109FFEFD8
:105920006F1A7F0AB6016F5F7F4F4E155F0524F037
:10593000F60110836B01DACF4817590739F40633A3
:1059400020F4053319F4A11001C011E3F60110830E
:10595000FB018B2D90E2882319F091938150FBCFAE
:10596000FB01EB0DF11D108280E090E029960FB64F
:10597000F894DEBF0FBECDBFDF91CF911F910F9185
:10598000FF90EF90DF90CF90BF90AF909F907F906F
:105990006F900895283008F027E03327DA01990F37
:1059A000311D87FD916000966105710539F4326003
:1059B0002E5F3D9330E32A95E1F708959F3F30F045
:1059C00080387105610509F03C5F3C5F3D93913083
:1059D00008F08068911DDF93CF931F930F93FF9280
:1059E000EF92192F987F9695E92F96959695E90F46
:1059F000FF27E95DFC4F99273327EE24FF24A701F9
:105A0000E70105900894079428F4360FE71EF81E66
:105A1000491F511D660F771F881F991F0694A1F714
:105A20000590079428F4E70EF81E491F561FC11D64
:105A3000770F881F991F661F0694A1F7059007949A
:105A400028F4F80E491F561FC71FD11D880F991F34
:105A5000661F771F0694A1F70590079420F4490F5D
:105A6000561FC71FD81F990F661F771F881F0694E0
:105A7000A9F784911095177041F0D695C795579561
:105A80004795F794E7941A95C1F7EDECF2E0689426
:105A90001590159135916591959105907FE27395DB
:105AA000E118F10A430B560BC90BD009C0F7E10C02
:105AB000F11E431F561FC91FD01D7EF4703311F411
:105AC0008A95E6CFE894015030F0080F0AF40027D9
:105AD000021708F4202F2395022F7A3328F079E358
